:020000040800F2
:10000000402B0024AD030008573B00080B390008C3
:10001000553B000817050008615D0008000000005E
:10002000000000000000000000000000593F000830
:100030001106000800000000D33C0008653F0008DE
:10004000C7030008C7030008C7030008C703000868
:10005000C7030008C7030008C7030008C703000858
:10006000C7030008C7030008C7030008C703000848
:10007000C7030008C7030008C7030008C703000838
:10008000C7030008C7030008C703000819060008D3
:1000900025060008C7030008C7030008C7030008B7
:1000A000C7030008C7030008C7030008C703000808
:1000B000C7030008C1400008C7030008C7030008C1
:1000C000C7030008C7030008C7030008C7030008E8
:1000D000C7030008C7030008C7030008C7030008D8
:1000E000C7030008C703000800000000C70300089A
:1000F000C7030008C7030008C7030008C7030008B8
:10010000C7030008C7030008C7030008C7030008A7
:10011000C7030008C7030008C7030008C703000897
:10012000C7030008C7030008C7030008C703000887
:10013000C7030008C7030008C7030008C703000877
:1001400000000000000000000000000000000000AF
:10015000C7030008C7030008C7030008C703000857
:10016000C7030008C7030008C7030008C703000847
:10017000C7030008593B0008C7030008000000003F
:10018000C7030008C7030008C7030008C703000827
:10019000C7030008C7030008C7030008C703000817
:1001A000C7030008C7030008C703000800000000D9
:1001B000C7030008C7030008C7030008C7030008F7
:1001C000C7030008C703000800000000000000008B
:1001D0000000000000000000C7030008000000004D
:1001E000000000000000000000000000000000000F
:1001F0000000000000000000C7030008C70300085B
:10020000C7030008C703000800000000C703000878
:10021000C7030008C7030008C7030008C703000896
:10022000C703000800000000C7030008000000002A
:10023000C7030008C703000800000000C703000848
:10024000C7030008C7030008C7030008C703000866
:10025000C7030008C7030008C7030008C703000856
:10026000C7030008C7030008C7030008C703000846
:10027000C7030008C7030008C70300080000000008
:10028000C7030008C7030008C7030008C703000826
:1002900000000000C7030008C703000800000000BA
:1002A00000000000C7030008C7030008C7030008D8
:1002B000C7030008C7030008C7030008C7030008F6
:1002C000C7030008C7030008C703000800F002F8CE
:1002D00000F05CF80AA090E8000C82448344AAF184
:1002E0000107DA4501D100F051F8AFF2090EBAE882
:1002F0000F0013F0010F18BFFB1A43F0010318475A
:1003000018660000386600000A444FF0000C10F830
:10031000013B13F0070408BF10F8014B1D1108BF83
:1003200010F8015B641E05D010F8016B641E01F823
:10033000016BF9D113F0080F1EBF10F8014BAD1C73
:100340000C1B09D16D1E58BF01F801CBFAD505E091
:1003500014F8016B01F8016B6D1EF9D59142D6D3EB
:10036000704700000023002400250026103A28BF13
:1003700078C1FBD8520728BF30C148BF0B60704717
:100380001FB506F08DFA1FBD10B510BD00F08AF83C
:100390001146FFF7F5FF05F069FF00F0A8F803B478
:1003A000FFF7F2FF03BC00F0AFF8000009488047F8
:1003B00009480047FEE7FEE7FEE7FEE7FEE7FEE747
:1003C000FEE7FEE7FEE7FEE704480549054A064B5F
:1003D0007047000001400008CD02000840250024BD
:1003E000402B0024402700244027002410B5203A49
:1003F000C0F00B80B1E81850203AA0E81850B1E8DE
:100400001850A0E81850BFF4F5AF5FEA027C24BF93
:10041000B1E81850A0E8185044BF18C918C0BDE88A
:1004200010405FEA827C24BF51F8043B40F8043B53
:1004300008BF7047D20728BF31F8023B48BF11F808
:10044000012B28BF20F8023B48BF00F8012B704762
:100450004FF0000200B5134694469646203922BF5D
:10046000A0E80C50A0E80C50B1F12001BFF4F7AFA8
:10047000090728BFA0E80C5048BF0CC05DF804EB8A
:10048000890028BF40F8042B08BF704748BF20F8F8
:10049000022B11F0804F18BF00F8012B70477047F6
:1004A00070477047754600F02BF8AE460500694668
:1004B000534620F00700854618B020B5FFF784FFAB
:1004C000BDE820404FF000064FF000074FF0000855
:1004D0004FF0000B21F00701AC46ACE8C009ACE8D6
:1004E000C009ACE8C009ACE8C0098D46704710B53A
:1004F0000446AFF300802046BDE81040FFF74FBF31
:1005000000487047DC24002401491820ABBEFEE7F8
:10051000260002007047FEE7002070470020704769
:1005200005490022054810B504F058F8044903486D
:1005300004F047F8002010BDAE150024A0080024E8
:10054000AE0D00242DE9F041214D0024214E0F462F
:10055000804630E0697818F8040019B329784A1CFD
:10056000D2B270541A2A2A7024D13078AB2815D10F
:100570001848407EBA2811D1164918395FF000009A
:1005800006EB4002B2F8012021F81020401C0C2894
:10059000F6DB10481049183806F082F80020287061
:1005A000687007E0AB2805D12A780123511CB054AC
:1005B00029706B70641C3868A042CBD8074841464C
:1005C00003F0FFFF054803F0D5FF0020BDE8F081F0
:1005D000DE000024940D00242C030024A008002435
:1005E00000207047094A10B5D2F8BC22D2F8142274
:1005F0000AB1012010BD0A460146044803F0EEFF8F
:10060000BDE81040014804F05FB80000A0080024D5
:10061000704772B6FEE70000014800F003BB00001F
:10062000A0010024014800F0FDBA000040020024AF
:10063000F0B503684FF6FC716D4C426BD3F88450F3
:100640008D4345EA8205C3F88450036853F8845FFC
:10065000068F25F47F0545EA06451D60836B654DD1
:100660009F180268D2F888308B4343EA8703C2F8A8
:100670008830026852F8883F868F23F4FE0343EAED
:1006800006431360066856F8A03FC26B8B4307EB26
:10069000420243EA82033360076857F8A03FB0F88C
:1006A000406023F4FE0343EA06433B60D0E9103682
:1006B00003FB06220368D3F8B0608E4346EA820645
:1006C000C3F8B0600368B0F84860D3F8B07027F49E
:1006D000FE0747EA0646C3F8B060D0E91267036830
:1006E00006FB0722D3F8AC608E4346EA8206C3F8C5
:1006F000AC60D0E91467036806FB0722D3F8F0600A
:100700008E4346EA8206C3F8F0600368B0F858608A
:10071000D3F8F07027F47C1747EA0646C3F8F06078
:100720000368876D53F8C06F02EB47028E4346EAB9
:10073000820119600168B0F85C20D1F8C03023F460
:100740007C1343EA0242C1F8C020016890F860209F
:10075000D1F8C03023F07C5343EA0262C1F8C020D4
:10076000416B04EB8101C166826B01EB820202677F
:10077000C36B02EBC3024267D0E91034634302EB60
:1007800083028267D0E91234634302EB8302C267BB
:10079000D0E91434634302EB8302C0F88020836DF8
:1007A00002EBC303C0F88430C46D826E544303EB84
:1007B0008403C0F88830046E544303EB8402C0F80D
:1007C0009020AA420AD9D0F89C20032142F02002AE
:1007D000C0F89C2080F898100120F0BD002200E0B5
:1007E00004C1D0F890308B42FAD80020F0BD000050
:1007F00000AC0040FCD30040F0B58E680C69D1E934
:10080000005744EA0604DFB145F080452C43866E6C
:10081000D1E906C54F695E4391F8203045EA0C05E1
:10082000D0F884E00020D1F80CC047EA03630D4FF4
:100830001D430EEB860345EA0C05E3E802450AE09A
:1008400044EA8544E3E71418155C001DD4F8014020
:1008500045EA042410C3CC6807EB1444247884428E
:10086000F1D8F0BDAC68000870B5044600F04EFE4B
:100870000546601C02D004480078044400F046FE9F
:10088000401BA042FAD370BD0800002410B590F8B8
:100890009830012B09D0022B07D0D0F89C1041F0E2
:1008A0000201C0F89C10012010BD03689C6D0C4231
:1008B00003D1DC6D44F0010404E09C6D31EA0404D2
:1008C0001FD00324DC658B0505D50368D3F8E04011
:1008D0001443C3F8E0404B0505D50368D3F8E44062
:1008E0001443C3F8E4400068084A01EA0203446D77
:1008F000074A1C434465106840EA9170106000206C
:1009000010BDDC6D44F00204DCE70000FFFFCF3FC8
:1009100014A8004070B5044690F89800022804D04E
:10092000D4F89C0040F008000DE02068D0F8C030FA
:1009300013F07C5F0BD0D0F8C4309B020CD5D4F8F8
:100940009C0040F40070C4F89C00012070BDD4F8F5
:100950009C0040F02000F6E7D0F8C400C0F3044546
:1009600020462B46FFF748FF21680120A840C1F828
:10097000D000C4F89400002070BD704790F8983003
:10098000012B07D0D0F89C1041F00401C0F89C1056
:100990000120704761B10068012913D0D0F8B01070
:1009A00021F0FE4141EA0261C0F8B010002070471A
:1009B0000068D0F8F01021F07C5141EA0261C0F8E3
:1009C000F010F3E7D0F8A01021F0FE4141EA0261F7
:1009D000C0F8A010EAE770B590F89820012A09D075
:1009E000022A07D0D0F89C1041F00201C0F89C10F8
:1009F000012070BD0B68CA6883B10B69072A43EAFE
:100A0000427325D00C7A4A6942EA84724968006FC1
:100A100000EBC100C0E90032002070BD072A0DD0F4
:100A20000C7AD6060D8A4B6943EA847246EA05437E
:100A3000C06E49681A4340F82120EDE70B8A4FF059
:100A40006055D1E9062442EA034245EA0423EFE770
:100A50008A69DBE730B590F89850039C012D07D0E8
:100A6000D0F89C1041F00401C0F89C10012030BD6A
:100A70000D01016845EA820040EA43002043C1F8C5
:100A80008000002030BD704770470000F0B590F83E
:100A900098400025022C04D0D0F89C1041F00801A9
:100AA0002BE040294FF0004605D0412929D0046DA4
:100AB0008C4219D942E00468D4F8A07017F4FE0FF4
:100AC00012D0D4F8A4707F0613D0D4F8A470FF011C
:100AD00005D5D4F8A070B6EBD77F00D10125D4F8A6
:100AE000A470466F446C24E0D0F89C1041F02001C3
:100AF00003E0D0F89C1041F48071C0F89C100120F4
:100B0000F0BD0468D4F8B07017F4FE0FECD0D4F840
:100B1000B4707F06EDD0D4F8B470FF0105D5D4F8D9
:100B2000B070B6EBD77F00D10125D4F8B470866FD2
:100B3000C46CC7F305273D446C4302E0446DC66FA7
:100B40004C4306EB8404266816F0804656602668FF
:100B500036D026F060461660D4F800C000262F4F2D
:100B60000CF0005CC2F808C0D4F800C00CF0004CD7
:100B7000C2F810C0B4F804C01FFA8CFCC2F81CC044
:100B8000D4F804C00CF4702CC2F80CC0D4F804C023
:100B90000CF4801CC2F814C0D4F804C00CF4001C7F
:100BA000C2F818C0D4F804C0CCF3066CC2F820C058
:100BB000D4F804C008344FEADC7CC2F824C008E052
:100BC000C6F38A46C7E700BF14F806C003F806C09C
:100BD000761CD2F80CC007EB1C4C9CF800C0B44546
:100BE000F2D840290AD041290CD020294FF0010227
:100BF0000CD200688A40C0F898200DE00068C0F868
:100C0000A85009E00068C0F8B85005E0006801F09D
:100C10001F018A40C0F89C200020F0BDAC6800088D
:100C2000704700002DE9FF5FDFF80CB304460BF1BD
:100C30000401DBF8000025680F68AA468007D5F894
:100C40005090696DD5F850806E6D2A6DD5F854C0FE
:100C50002B6D00EA8770009009F470496F6D286D64
:100C600001EA09010191DAF85410DAF85490DAF83F
:100C7000505008F00F0806EA0806029602F0F0024B
:100C800003F071536FEA09061F4000F060700CEA30
:100C9000020CCDF80CC0F20501EA00090CD4E843BF
:100CA000C00509D400214FF48073CAF85030CBF846
:100CB00000102046FFF7B4FF700512D4E84340054A
:100CC0000FD4206800234FF48068D0F8DC20D0F8DF
:100CD000E410C0F85080CBF800301140204600F0FE
:100CE000FDFADFF858A2009850B12268830F00EA9D
:100CF0000A001065CBF8003020460099FFF73DFE52
:100D0000019850B12268830F00EA0A001065CBF801
:100D100000302046019900F0E3FA029850B12268B1
:100D2000830F00EA0A001065CBF8003020460299D4
:100D300000F09EFA039850B12268830F00EA0A007F
:100D40001065CBF800302046039900F0A7FA300573
:100D50000CD4E843000509D4236800204FF4006256
:100D60001A65CBF80000204600F0BBFAB00512D49B
:100D7000E84380050FD4206800234FF40078D0F8B2
:100D8000D820D0F8E010C0F85080CBF800301140E7
:100D9000204600F0A4FA30030CD4E843000309D441
:100DA000236800204FF400221A65CBF8000020468B
:100DB00000F05CFAF0030CD4E843C00309D42368C4
:100DC00000204FF480321A65CBF80000204600F076
:100DD00084FA70030CD4E843400309D4226800204D
:100DE0004FF480231365CBF80000204600F074FA1E
:100DF000B0030FD4E84380030CD4236800204FF4E1
:100E000000321A65CBF80000D4F89C0040F0800056
:100E1000C4F89C00B9F1000F0BD022684FEA997317
:100E200009EA0A001065CBF8003049462046FFF772
:100E30002BFE5FB12268BB0F07EA0A001065CBF8F2
:100E40000030D4F89C003843C4F89C003C4920682A
:100E5000884268D1606881468068800763D0D9F88D
:100E60002060D9F82410D9F82080D9F82400D9F8C6
:100E700020C0D9F82470D9F82030D9F82450D9F8F6
:100E8000202003F4FC4306F00F0AD9F824601D402B
:100E9000D9F824B008F030080CF4C07C02F4F02239
:100EA00011EA0A0100EA080807EA0C0706EA020646
:100EB000D9F820A004D0C9F82010204600F009FA83
:100EC000B8F1000005D0616808624146204600F094
:100ED00002FA6FEA0B0040060ED46FEA0A004006E1
:100EE0000AD460684021C36BC26B01622046190CB2
:100EF00002F03F0200F0EEF92FB160680762394658
:100F0000204600F0E5F935B160680562D4F89C0030
:100F10002843C4F89C0036B160680662D4F89C008F
:100F20003043C4F89C00D4F89C00002802D020462E
:100F3000FFF7A9FDBDE8FF9F10A80040FFFFCF3FCE
:100F400000A000402DE9F04194B08D494C220446A8
:100F50006846FFF74BFA64B18A4D2068A84202D177
:100F600000F58070606094F898004FF0000820B1A0
:100F700008E0012014B0BDE8F081204684F8998093
:100F800000F002F92068816921F01001816100F010
:100F9000BDFA0327064604E000F0B8FA801B0A28D1
:100FA00011D8206880690007F6D42068816941F073
:100FB0000101816100F0AAFA06460DE000F0A6FAF0
:100FC000801B0A2808D9D4F89C0040F00100C4F81E
:100FD0009C0084F89870CCE720688069C007EDD049
:100FE0002068816941F002018161207C012820682C
:100FF000816937D041F040018161607C012820681F
:10100000816932D021F480418161A07C012820686F
:1010100081692DD041F4805181612068A268816985
:1010200021F44071114381612068816921F0A4019C
:1010300081612068016921F010010161E0680128E7
:1010400019D010B302281BD02068816941F08001BB
:1010500081612068016941F010010161E0680328A5
:101060000ED012E021F04001C6E741F48041CBE709
:1010700021F48051D0E72068816941F0040103E048
:101080002068816941F020018161207E6FF0FF02BC
:10109000D4E90773A68A1102400602EB0727A0F1E4
:1010A0000070384327685B1E184301EB0646304347
:1010B000F861A068B0F5407F11D104F12800A68C3A
:1010C0006FF00F0C89C801EB0641401E02EB0322B2
:1010D000104322680CEB071318430843D060206EBE
:1010E00030B12068626ED0F8C0101143C0F8C01053
:1010F000D4E917126846D14209D02168A36E51F88D
:10110000C82F50F8233022F007021A430A60216CDE
:1011100049B12168626C51F8BC3F50F8226023F05D
:10112000070232430A60A16C51B12168E36C51F8A7
:10113000BC2F50F8233022F0700242EA03120A60FA
:10114000216D51B12168626D51F8BC3F50F8220009
:1011500023F4E06242EA002008602068A84204D13B
:101160006068816821F003018160C4F894800121E6
:10117000C4F89C8084F898102046FFF759FAF9E6E5
:10118000BC68000800A00040F0B587B004461421F8
:101190006846FFF75DF9304A0021276802252D4C8B
:1011A0000926DFF8B8C010680C3C2A4B674500F1EF
:1011B000010023D10128106007D1186840F4807025
:1011C0001860186800F480700590206840F00800EE
:1011D0002060206800F00800059003200090CDE911
:1011E0000151CDE903161E48694600F07BF8002244
:1011F0001320114600F002FA132026E0DFF864C045
:10120000674524D10128106007D1186840F4807028
:101210001860186800F480700590206840F00200A3
:101220002060206800F00200059060200090CDE969
:101230000151CDE903160C48694600F053F800222D
:101240001420114600F0DAF9142000F0C9F907B0B3
:10125000F0BD0000EC4402580400002400A000404F
:10126000000C025800A4004000040258704700001F
:1012700010B50446C8070BD00648844201D104F0DB
:1012800055FF0548844203D1BDE8104004F080BFFB
:1012900010BD0000A001002440020024704790F817
:1012A0009810012907D0D0F89C1041F00401C0F833
:1012B0009C1001207047022180F8981000220168DC
:1012C0008B6923F001038B61C0F89C2010467047A6
:1012D0007047704770477047704770477047704756
:1012E000704770472DE9F84F03247A4D00234FF0E3
:1012F00001094FF0B04B4FF00F0AE4E009FA03F692
:10130000324078D00F7907F00307012F01D0022F68
:101310001AD187684FEA430ED1F80CC004FA0EF8D0
:1013200027EA08070CFA0EFC4CEA070CC0F808C0C4
:10133000476891F804C0B743CCF3001C0CFA03FCD7
:101340004CEA070CC0F804C00E79F643B6070BD080
:10135000C6684FEA43088F6804FA08FC26EA0C06C0
:1013600007FA08F73743C7600E7906F00306022E26
:1013700012D1DE080F694FEA437C00EB8606B646C1
:10138000366A4FEADC6C0AFA0CF807FA0CF726EA20
:1013900008063743CEF820700F7906684FEA4308F5
:1013A00007F0030704FA08FC07FA08F726EA0C0618
:1013B000374307604E6816F4403F1CD0464E3768EE
:1013C00047F00207376036689F0706F0020600966E
:1013D00023F0030606F1B046B6463F0FD6F8086480
:1013E000DFF8F8800AFA07FC404526EA0C0603D12C
:1013F0004FF0000C3AE065E0DFF8E4C0604502D150
:101400004FF0010C32E0DFF8DCC0604502D14FF054
:10141000020C2BE0DFF8D0C0604502D14FF0030C86
:1014200024E0DFF8C8C0604502D14FF0040C1DE095
:10143000DFF8BCC0604502D14FF0050C16E0DFF8C4
:10144000B4C0604502D14FF0060C0FE0DFF8A8C031
:10145000604502D14FF0070C08E0DFF8A0C06045FE
:1014600002D14FF0090C01E04FF00A0C0CFA07FC16
:101470004CEA060CCEF808C44F68DBF80060FF02A7
:1014800026EA020600D516435F46CBF80060D1F885
:1014900004C0DBF804605FEA8C2C26EA020600D563
:1014A00016437E606E684F6826EA0206BF0300D5C9
:1014B00016436E602E684F6826EA0206FF0300D5C9
:1014C00016432E605B1C0A6832FA03F67FF416AFEF
:1014D000BDE8F88F80000058F4440258000002581C
:1014E0000004025800080258000C0258001002586C
:1014F0000014025800180258001C02580024025818
:101500000AB1816170470904FBE700000148806867
:1015100070470000080000240248816802781144E6
:101520008160704708000024032010B500F086F8A1
:1015300001F00CFC0F4A104914681368C4F303222D
:1015400003F00F038A5CC95C02F01F0201F01F0167
:10155000D0400A4A20FA01F11160094908600F20C1
:1015600000F010F808B1012010BD00F02BF80020A9
:1015700010BD000018440258086900081800002433
:101580001400002470B50D4D04462878A0B14FF426
:101590007A71B1FBF0F00A490968B1FBF0F001F093
:1015A00010FF48B9102C07D200222146501E00F02F
:1015B00025F800206C6070BD012070BD080000247B
:1015C00014000024054808B5016841F002010160DB
:1015D000006800F00200009008BD0000F4440258CA
:1015E000002809DB410900F01F028900012001F1F8
:1015F000E0219040C1F80001704700000E4BF0B4AC
:101600001B680D46C3F30223C3F10706042E00D95D
:101610000426191D072901D2002300E0DB1E012446
:1016200004FA06F19C40491E2940641E994014406A
:101630002143F0BC04F095BB0CED00E0064900F03E
:10164000070210B54FF6FF040868044B204040EA3B
:1016500002201843086010BD0CED00E00000FA0500
:1016600001680123C0F80035002280F8F42488695D
:10167000044A40F000608861486D104348650020CE
:1016800070470000030000107047006841620020AE
:101690007047F0B503685D6A39B19F6A4C1E00203F
:1016A0004FF4827605EB17450BE045EA024098625D
:1016B00010E0471C06EB800053F800C0F8B205EBC1
:1016C0001C45A042F5D34FF4807000EB810045EA41
:1016D00002421A500020F0BDD0F8080503F089BA84
:1016E00001EBC10200EB8202D0F80805926C03F016
:1016F000DCB901EBC10200EB8202D0F80805D2F898
:10170000882203F02EBAD0F8080503F074BA0A064E
:1017100001F00F0101EBC10100EB810101D53C316A
:1017200001E001F51F71006804F060B901F00F02DB
:101730000B0670B502EBC20104464FF001004FF0FA
:10174000000504EB810103D581F83D003C3103E045
:1017500081F87D5201F51F710A7094F8BC24012AAA
:1017600008D084F8BC04206803F05CFE002084F8F4
:10177000BC5470BD022070BD70B54268044601F0D3
:101780000F00904201D9012070BD01F00F024FF00F
:1017900000050B0602EBC2014FF0010204EB8101D0
:1017A00003D581F83D203C3103E081F87D5201F5FD
:1017B0001F718D70087094F8BC04012808D084F85B
:1017C000BC24206803F09EFF002084F8BC5470BD48
:1017D000022070BD01F00F0101EBC10100EB81009F
:1017E000D0F8900270472DE9F04101F00F06044651
:1017F0000D064FF0010006EBC6014FF0000504EBAB
:10180000810103D581F83D003C3103E081F87D5230
:1018100001F51F714F788A600B710E7007B14E830E
:10182000022B00D14D7194F8BC24012A09D084F810
:10183000BC04206803F044FD284684F8BC54BDE88D
:10184000F0810220FBE770B501F00F05002405EBE5
:10185000C50100EB810101F5227181E81C0001F84E
:101860000B4C01F80C5DC368012B00D1CA61027BEF
:10187000006803F09FFF002070BD70B50D46416801
:10188000044605F00F00884201D9012070BD2906E9
:101890004FF000064FF0010207D500EBC00104EB4A
:1018A000810181F83D203C3107E005EBC50104EBE7
:1018B000810181F87D6201F51F718A70087094F8CA
:1018C000BC04012807D084F8BC24206803F046FF3C
:1018D000280702D007E0022070BD217B04F2C44239
:1018E000206803F0E3FE002084F8BC6470BD70B58E
:1018F00001F00F04002504EBC401012600EB810177
:10190000483181E82C0001F80B6C01F80C4DC368DC
:10191000012B00D1CA61027B006803F04BFF00205D
:1019200070BD00002DE9FC5F05680446284604F000
:10193000FEF800287ED1206804F025F9002879D02F
:10194000D5F80808C0F30D20C4F8FC04206804F0A2
:101950001AF9800704D52068416901F0020141614C
:10196000206804F010F9C10604F2C440009034D598
:101970002068816921F0100181612F6A07F00F0151
:10198000C7F3434001EBC101022804EB810606F5D1
:101990001F7602D0062811D01AE047F6F0700742F1
:1019A00016D0C7F30A12F1681746284604F0EFF87C
:1019B000F16870693944F160384408E00099082200
:1019C000284604F0E4F87069C7F30A11084470610E
:1019D0002068816941F010018161206804F0D3F82A
:1019E00000034FF0000A4FF0020B4FF001097CD5C5
:1019F0002068002604F0A6F8074674E0F80770D0C7
:101A00002068F1B204F0B7F88046C00707D005EBB4
:101A10004611C1F8089B3146204602F0A3F85FEA60
:101A2000087025D505EB46110820C1F8080BFC49C4
:101A3000206800E042E2026C00EB461001928A420C
:101A4000D0F8081B05D9090403D54FF40041C0F8AC
:101A5000081B204600F01AFBF1490198884207D97B
:101A6000E068012804D120680121009A03F01EFEDD
:101A70005FEAC86004D505EB46111020C1F8080BD9
:101A80005FEA88701CD56869000605D5D5F804089A
:101A900040F48061C5F8041806EBC60004EB800032
:101AA00090F87F1200F51F70012905D180F803A07E
:101AB0002046F1B200F008FA05EB4611C1F808BB68
:101AC0005FEA886004D505EB46112020C1F8080BB9
:101AD0005FEA884005D505EB46114FF40050C1F888
:101AE000080B7F08761C002F88D1206804F04BF883
:101AF00040036FD5206804F01EF80026074667E013
:101B0000F80763D02068F1B204F023F88046C007DC
:101B100023D0D5F8342806F00F0C05EB461309FA4C
:101B20000CF08243C5F83428C3F80899E06801280E
:101B30000FD106EBC60004EB8000D0E9111211446E
:101B4000816436B9E06C20B920680121009A03F065
:101B5000ADFD2046F1B2FFF7C3FD5FEA087004D582
:101B600005EB46110820C1F808095FEAC86004D5F2
:101B700005EB46111020C1F808095FEA486004D55A
:101B800005EB46114020C1F808095FEA887016D5B8
:101B90003146284603F09EFF06EBC60004EB8000AA
:101BA00090F83F103C30012905D180F803A0204671
:101BB000F1B200F085F905EB4611C1F808B95FEA0A
:101BC000086003D53146204602F032F87F08761CC3
:101BD000002F95D1206803F0D6FF002811DAD5F840
:101BE000040820F00101C5F8041894F8F404012851
:101BF0003BD0204600F02EFA2068416901F00041F8
:101C00004161206803F0BFFF00050BD5D5F8080837
:101C1000C00702D0204600F061FA2068416901F453
:101C200000614161206803F0AEFF00010AD5206821
:101C3000416901F00061416194F8F404E0B120468B
:101C400000F04CFA206803F09EFFC00472D5D5F86E
:101C5000040820F00101C5F804182068102103F0E1
:101C600039FF00214FF67F322DE00021204684F815
:101C7000F4A4FFF709FDBFE784F8F4942068406DF1
:101C80000121C0F38300C4F8F8042046FFF7FCFCF0
:101C9000D8E700BF05EB4110C0F80829D0F800399B
:101CA00023F40013C0F80039C0F8082BD0F8003B2B
:101CB00023F40013C0F8003BD0F8003B43F000636E
:101CC000C0F8003B491C60688842E3D8D5F81C087E
:101CD00040F00111C5F81C18206B68B1D5F88408D4
:101CE00040F00B01C5F88418D5F8440840F00B010A
:101CF0002846C5F844180DE0D5F8140842F22B0127
:101D00000843C5F81408D5F8100840F00B01284620
:101D1000C5F81018D0F8000820F4FE61C5F80018C6
:101D2000217B2068009A03F0C1FC2068416901F41E
:101D300080514161206803F026FF800417D5206898
:101D400003F0FEFA206803F0E5FE206100F0DCFFFE
:101D5000217C2368CAB20146184603F079FF204669
:101D600000F062F92068416901F400514161206886
:101D700003F009FF000707D5204600F06FF920683F
:101D8000416901F008014161206803F0FCFE000692
:101D900016D5A869012620F08001A9610DE000BFD9
:101DA00006EBC60004EB800090F87F02012803D107
:101DB0002046F1B2FFF7ABFC761C6068B042EFD86A
:101DC000206803F0E0FEC00221D501264F4616E050
:101DD00006EBC60105EB461004EB8101D0F80009C3
:101DE00091F84020012A09D1002807DAF0B281F8E1
:101DF0003F7040F080012046FFF789FC761C606848
:101E0000B042E5D82068416901F480114161206841
:101E100003F0B9FE800234D501204B4629E00000D2
:101E20000A30544F00EBC00205EB401104EB820274
:101E3000D1F8001B92F88062012E19D1002917DA1F
:101E400094F8FC6401F4803106F00106B1420FD130
:101E500082F87F32A96941F08002AA6169690906A6
:101E600006D4D5F8040840F40070C5F8040803E06F
:101E7000401C61688142D5D82068416901F4001195
:101E80004161206803F07FFE400007D52046FFF740
:101E900023FC2068416901F080414161206803F022
:101EA00072FE40070AD520684568680702D52046BB
:101EB000FFF729FC2068416829434160BDE8FC9F89
:101EC000D0F8080502F0F0BED0F8080502F000BF17
:101ED0002DE9F04104008AB005D094F8BD04002536
:101EE000266820B108E001200AB0BDE8F081204654
:101EF00084F8BC5400F066F8032084F8BD04F06B4D
:101F0000C00500D4E560206803F0CAFB04F11001AD
:101F1000684628228846FEF769FA94E80F0003F025
:101F20001DFA0227D8BB2068002103F050FE0020D4
:101F3000012610E000EBC001421C04EB810181F896
:101F40003D6081F840504D648D64CD6481F83C0063
:101F5000A1F85600D0B261688142EBD8002011E0B0
:101F600000EBC001421C04EB810181F87D5281F835
:101F70008052C1F88452C1F88852C1F88C5281F85D
:101F80007C02D0B261688142EAD828224146684684
:101F9000FEF72CFA94E80F0003F0C6FA10B184F8AB
:101FA000BD74A0E7606A84F8385084F8BD640128E5
:101FB00002D12046FFF754FB206803F0A7FA002067
:101FC00092E7000010B5B0B00446B8216846FEF7AD
:101FD0003FFA13492068884220D100204FF4802125
:101FE0004FF440122192CDE90010684600F0C0F88D
:101FF00008B1FEF70EFB00F0B3F80A48016841F0A3
:102000000071016000680022114600F000702E90FF
:102010004D20FFF7F3FA4D20FFF7E2FA30B010BD84
:1020200000000440D844025870B5044600690125F8
:1020300070B1022801D0FEF7ECFAD4F80805294661
:1020400002F0B5FED4F80805BDE8704002F069BEA4
:102050000025F2E7D0F8080502F092BED0F8080596
:1020600002F098BE10B5044690F8BC0401280BD0CD
:10207000012084F8381084F8BC04206803F0D6FDF1
:10208000002084F8BC0410BD022010BDD0F8082543
:1020900000F2C441104602F096BE10B590F8BC1490
:1020A00004460068012909D0012184F8BC14C16BE1
:1020B000C90509D4A16A012902D005E0022010BD9A
:1020C000816B41F480318163206803F0DEFC20687D
:1020D00003F00EFA002084F8BC0410BD10B50446CD
:1020E000D0F8080502F0B1FE2068D0F8001E41F0DB
:1020F0000101C0F8001E206A002804D002480168CF
:1021000041F00601016010BD10ED00E0134970B50B
:102110000A68D243520705D5096801F007018142D8
:1021200013D118E00A6822F0070202430A60FFF7A1
:10213000EDF90A4D4FF47A760446083D07E000BFFA
:10214000FFF7E4F9001BB04201D9012070BD2868F7
:10215000C0438004F4D4002070BD00000C48025835
:102160000248016841F08071016070470C480258D4
:102170002DE9FE4F0546DFF800A450F8081B0024A7
:10218000FD4FC943019005F1280026460AF1240AB3
:10219000009008011DD4686E50B1B0F5801F0CD0BE
:1021A000B0F5001F0ED0B0F5401F1ED001240FE087
:1021B000386840F40030386017E00198022101F0DF
:1021C000ABFD03E00098022101F036FE04000CD0C4
:1021D00026462888C043C00523D4A86D05281ED2F2
:1021E000DFE800F00C11161B1B006A6EDAF8001015
:1021F00021F440111143CAF80010EAE7386840F4AE
:102200000030386009E00198002101F085FD03E00D
:102210000098002101F010FE0446C4B100E0012442
:1022200026462888DFF85083C04308F12C08400573
:102230002FD4D5F8A400B0F5C00F28D010DCB8B169
:10224000B0F5001F19D0B0F5800F0FD11AE0AA6DBC
:10225000DAF8001021F007011143CAF80010E0E796
:10226000B0F5000F13D0B0F5200F10D001240FE00F
:10227000386840F40030386009E00198002101F02E
:102280004BFD03E00098002101F0D6FD044694B117
:1022900026462888C043000530D4D5F8A800B0F100
:1022A000407F29D011DCC0B1B0F1807F1AD0B0F1ED
:1022B000007F10D11BE0D5F8A420D8F8001021F43D
:1022C00060011143C8F80010E3E7B0F1806F13D04C
:1022D000B0F1A06F10D001240FE0386840F4003056
:1022E000386009E00198002101F016FD03E0009834
:1022F000002101F0A1FD044694B126462868DFF8CC
:1023000078B2C0430BF1200B80011FD4E86CD8B128
:1023100010280FD0202812D0302815D0012414E026
:10232000D5F8A820D8F8001021F0E0611143C8F8D2
:102330000010E3E7386840F40030386004E00198AA
:10234000022101F0E9FC044674B126462888C04306
:10235000C0042BD4E86DB0F5005F20D00DDCA0B137
:10236000B0F5805F0FD115E0EA6CDBF8001021F0CA
:1023700030011143CBF80010E8E7B0F5405F13D00F
:10238000B0F5804F10D001240FE0386840F40030E1
:10239000386009E00198002101F0BEFC03E00098DC
:1023A000002101F049FD04468CB126462888C0432F
:1023B000800429D4286EB0F5403F23D010DC08B348
:1023C000B0F5803F14D0B0F5003F0FD115E0EA6DB5
:1023D000DAF8001021F4E0411143CAF80010E5E7F3
:1023E000B0F5802F0ED0B0F5A02F0BD001240AE05D
:1023F0000198012101F090FC03E00098012101F017
:102400001BFD044694B126462888C04340042AD4C4
:10241000D5F8AC00B0F1405F23D010DC08B3B0F1C8
:10242000805F14D0B0F1005F0FD115E02A6EDAF8AA
:10243000001021F4E0211143CAF80010E4E7B0F1E4
:10244000804F0ED0B0F1A04F0BD001240AE00198CC
:10245000012101F061FC03E00098012101F0ECFC96
:10246000044674B126462888C04300041FD4E86E91
:10247000D8B1B0F1805F0ED0B0F1005F10D0012470
:1024800014E0D5F8AC20D8F8001021F0E041114359
:10249000C8F80010E7E7386840F40030386004E01E
:1024A0000198012101F038FC044674B126462868E1
:1024B000C043C0011ED4A86CD0B101280ED00228A0
:1024C00011D0032814D0012413E0EA6EDAF80010CA
:1024D00021F040511143CAF80010E8E7386840F491
:1024E0000030386004E00198022101F015FC044638
:1024F0006CB126462868C043400255D41F48016885
:1025000041F480710160FFF701F881460EE0AA6C8A
:10251000DBF8001021F003011143CBF80010E9E7CC
:10252000FEF7F4FFA0EB090064283BD813480068CD
:10253000C005F5D5BCBBDFF84090B5F8B01009F187
:102540004409D9F8000001F4407100F44070884259
:1025500011D0D9F80010D9F8002021F4407142F4CC
:102560008032C9F80020D9F8002022F48032C9F85E
:102570000020C9F8001003E02C440258004802581B
:10258000D5F8B000B0F5807F19D1FEF7BFFF0290FB
:1025900011E000BFFEF7BAFF0299411A41F28830FC
:1025A000814208D9032426462878DFF81494C043D2
:1025B000C00721D03CE0D9F800008007EAD5D5F863
:1025C000B010C1F301200328FE480DD0016821F4AA
:1025D0007C510160B5F8B020D9F80010C2F30B02AD
:1025E0001143C9F80010DFE7F74A036802EA111245
:1025F00023F47C511143ECE7A86F182816D005DCB2
:10260000A0B1082808D0102804D10AE020280DD055
:1026100028280BD001240AE00198012101F07CFB5D
:1026200003E00098012101F007FC044664B126464E
:102630002878C04380071ED4686F062819D2DFE8C7
:1026400000F0160C11161616AA6FD9F8001021F01A
:1026500038011143C9F80010EAE70198012101F09F
:102660005BFB03E00098012101F0E6FB04467CB12E
:1026700000E0012426462878C04340071FD4D5F83F
:102680009000062819D2DFE800F0160C1116161675
:102690006A6FD9F8001021F007011143C9F8001042
:1026A000E9E70198012101F037FB03E000980121DF
:1026B00001F0C2FB0446A4B100E0012426462878BC
:1026C000C04380062BD4D5F88C00B0F1405F24D0F5
:1026D00011DC10B3B0F1805F15D0B0F1005F10D104
:1026E00016E0D5F89020D8F8001021F0070111432A
:1026F000C8F80010E3E7B0F1804F0ED0B0F1A04F62
:102700000BD001240AE00198002101F005FB03E051
:102710000098022101F090FB044694B126462878E7
:10272000C04340062BD4D5F89800B0F5406F24D0B4
:1027300011DC10B3B0F5806F15D0B0F5006F10D17B
:1027400016E0D5F88C20D9F8001021F0E0411143B3
:10275000C9F80010E3E7B0F5805F0ED0B0F5A05FD8
:102760000BD001240AE00198002101F0D5FA03E022
:102770000098022101F060FB044694B126462878B7
:10278000C04300062BD4D5F89C00B0F5C04F24D030
:1027900011DC10B3B0F5005F15D0B0F5804F10D14B
:1027A00016E0D5F89820D8F8001021F4E051114334
:1027B000C8F80010E3E7B0F5004F0ED0B0F5204F99
:1027C0000BD001240AE00198002101F0A5FA03E0F2
:1027D0000098022101F030FB044654B126462878C7
:1027E000C04300071ED4D5F88000B0F5805F0AD042
:1027F0000FE0D5F89C20D8F8001021F46041114377
:10280000C8F80010EBE70098022101F015FB00B1B9
:102810000126D5F88020D9F8001021F44051114349
:10282000C9F800102878C043C00613D4D5F8940026
:10283000B0F5807F05D10098022101F0FDFA00B1CA
:102840000126D5F89420D8F8001021F440711143E6
:10285000C8F800102868C043000316D4D5F8A000BB
:1028600038B1B0F5803F09D0B0F5003F0BD001245E
:102870000AE00198002101F04FFA03E000980221DC
:1028800001F0DAFA04468CB126462868C0434003BA
:1028900022D4D5F88400B0F5801F11D0B0F5001F08
:1028A00013D0B0F5401F15D0012414E0D5F8A020B6
:1028B000D8F8001021F440311143C8F80010E4E7C3
:1028C000386840F40030386004E00098012101F0DD
:1028D000B3FA04465CB126462868C043C0031CD442
:1028E000286D70B1B0F5803F10D0012414E0D5F808
:1028F0008420D9F8001021F440111143C9F80010C8
:10290000EAE7386840F40030386004E001980221BA
:1029100001F002FA0446DCB126462868C043800074
:1029200005D40098022101F087FA00B10126286839
:10293000C04380031BD4E86FB8B1B0F5807F10D0DE
:10294000B0F5007F11D0B0F5407F0ED001240DE02E
:102950002A6DDBF8001021F480311143CBF8001010
:10296000DBE7386840F4003038607CB326462868DE
:10297000C043C00207D42A6FDAF8001021F00041EA
:102980001143CAF800102868C043800207D4AA6E19
:10299000DAF8001021F080711143CAF8001028689D
:1029A000C043400009D40748016821F40041016098
:1029B0000168D5F8B420114301602868C04306E0DF
:1029C0005444025810440258CFFFFF001DE007D4C2
:1029D0006A6DDBF8001021F040511143CBF8001074
:1029E0002868C043000208D4D5F88820D9F8001020
:1029F00021F440011143C9F8001028790024C04394
:102A000000F00100204309D00EE0EA6FD9F8001071
:102A100021F440711143C9F80010A8E70198002182
:102A200001F07AF900B106462879C04300F00200AF
:102A3000204305D10198012101F06EF900B106464D
:102A40002879C04300F00400204305D101980221F9
:102A500001F062F900B106462879C04300F0080091
:102A6000204305D10098002101F0E6F900B10646A7
:102A70002879C04300F01000204305D100980121BF
:102A800001F0DAF900B106462879C04300F02000D1
:102A9000044304D10098022101F0CEF900B916B127
:102AA0000120BDE8FE8F0020FBE700002DE9F05F6C
:102AB00004000F467ED0DFF83882D8F8000000F01E
:102AC0000F00B8420CD2D8F8001021F00F013943A2
:102AD000C8F80010D8F8000000F00F00B84269D123
:102AE0002078844D40070AD52069296801F07001DB
:102AF000884204D9296821F07001014329602078B7
:102B00007C4E361D00070AD56069316801F07001FE
:102B1000884204D9316821F0700101433160207886
:102B2000C0060AD5A069316801F4E061884204D981
:102B3000316821F4E061014331602078DFF8B4B1FD
:102B400080060BF1080B0CD5E1695846DBF8002034
:102B500002F07002914204D9026822F070020A4326
:102B60000260207880070AD5E068296801F00F012B
:102B7000884204D9296821F00F0101432960207897
:102B8000C0073ED05B49A2682868183920F47060FD
:102B9000104328606068022818D0032819D00968FB
:102BA000012819D0490700294ADADFF848A1AAF11B
:102BB000080A00E044E0DAF8002022F007020243AD
:102BC000CAF80020FEF7A2FC814612E009688903DA
:102BD000E9E709688901E6E7C905E4E7FEF796FC3D
:102BE000A0EB090141F28830814202D90320BDE8FF
:102BF000F09F6168DAF8000000F03800B0EBC10F18
:102C0000ECD1207880070AD5E068296801F00F012F
:102C1000884204D2296821F00F0101432960D8F8C5
:102C20000010404601F00F01B9420BD9016821F0B4
:102C30000F0139430160006800F00F00B84201D075
:102C40000120D4E7207840070AD52069296801F0DF
:102C50007001884204D2296821F070010143296083
:102C6000207800070AD56069316801F07001884258
:102C700004D2316821F07001014331602078C00630
:102C80000AD5A069316801F4E061884204D2316854
:102C900021F4E06101433160207880060CD5E169C0
:102CA0005846DBF8002002F07002914204D202681C
:102CB00022F070020A43026000F048F80E492A68C8
:102CC0002B68C2F3032203F00F038A5CC95C02F095
:102CD0001F0201F01F01D040084A20FA01F11160E3
:102CE0000749086007480068BDE8F05FFEF74ABC86
:102CF00000200052184402580869000818000024F7
:102D0000140000240C00002430B500F01FF80B4A1A
:102D10000B490C4B15681468C5F3032204F00F042B
:102D20008A5C095D02F01F0201F01F01D040064AD3
:102D300020FA01F119601060084630BD18440258AD
:102D4000086900081800002414000024454970B5E3
:102D500045480968434B103B11F0380208D0011177
:102D6000082A03D0102A0BD0182A0BD0084670BDB1
:102D700019688906FBD51968C1F3C101C84070BD47
:102D80003A4870BD3749374D18310C1D24350A6853
:102D9000096826682D6802F0030406F00102C1F3F9
:102DA0000511C5F3CC0515FB02F200EE102AB8EEB2
:102DB000400AE9B32F4ADFED2E0AB7EE001A6CB1D4
:102DC000DFED2D1A012C01D0022C43D002EE101A97
:102DD0001068F8EE422A81EEA22A1EE01C68A406C2
:102DE00011D51B6801EE901A1168C3F3C103F8EE08
:102DF000612AD84001EE900AC1F30800F8EE611A8A
:102E000081EEA22A0BE001EE901ADFED1C2A00BF32
:102E1000F8EE611A106882EEA12AC0F3080001EEF4
:102E2000900AF8EE611A40EE201A31EE810A00E0B5
:102E300015E022EE000A1068C0F34620401C00EEA8
:102E4000900AF8EE600A80EE201ABCEEC10A10EE7D
:102E5000100A70BD01EE901ADFED092AD8E70020B4
:102E600070BD0000104402580090D00300366E017F
:102E700000000039304402580024744A0024744C85
:102E8000001BB74B2DE9F05F04007DD0FF4F207889
:102E9000FE4D1837DFF8F483103DC00748D0D8F84E
:102EA0000000396800F03800102815D0182803D128
:102EB00001F0030002280FD06068B0F5803F12D007
:102EC00010B1B0F5A02F18D0286820F48030286009
:102ED000286820F4802009E02868800328D56068ED
:102EE0000028D2D024E0286840F480302860606850
:102EF00088B1FEF70BFB064609E0286840F4802005
:102F00002860F0E7FEF702FB801B64287ED8286863
:102F10008003F7D50CE0FEF7F9FA064605E000BF9E
:102F2000FEF7F4FA801B6428F0D828688003F7D4F1
:102F30002078800756D5D8F80000DFF8509339681C
:102F400010F03800A9F10C090ED0182801D188071B
:102F50000AD0E068A8B3296821F01901014329606B
:102F6000FEF7D4FA064628E02868400702D5E06854
:102F700000288AD0E168286820F0190008432860FA
:102F8000FEF7C4FA064606E0D2E000BFFEF7BEFA3E
:102F9000801B0228BAD828684007F7D5217CD9F8C9
:102FA000002022F0FE4242EA0161C9F8001019E057
:102FB000FEF7ACFA801B0228A8D828684007F7D58E
:102FC000ECE7FFE7286820F001002860FEF79EFA92
:102FD000064604E0FEF79AFA801B022896D8286875
:102FE0004007F7D42078C00646D5D8F80000DFF8AF
:102FF0009C92396800F03800A9F10409082812D021
:10300000182805D101F00300012800E0CEE00AD025
:10301000E0690028286820D040F080002860FEF792
:1030200075FA064615E02868C00502D5E0698028D3
:103030007ED194F82010D9F8002022F07C5242EA88
:103040000161C9F8001017E0FEF760FA801B022842
:10305000A0D82868C005F7D5EBE720F080002860ED
:10306000FEF754FA064604E0FEF750FA801B0228E9
:1030700090D82868C005F7D42078000729D5834860
:103080006169643000298146016811D041F0010175
:103090000160FEF73BFA064605E000BFFEF736FA90
:1030A000801B022888D8D9F800008007F6D510E0E8
:1030B00021F001010160FEF729FA064605E000BF94
:1030C000FEF724FA801B022870D8D9F80000800788
:1030D000F6D42078800623D5A0690028286810D06F
:1030E00040F480502860FEF711FA064605E000BF64
:1030F000FEF70CFA801B022858D828688004F7D500
:103100000EE020F480502860FEF700FA064604E046
:10311000FEF7FCF9801B022848D828688004F7D401
:103120002078400751D5DFF86891D9F8001000E009
:1031300015E141F48071C9F80010FEF7E7F9064681
:1031400005E000BFFEF7E2F9801B64282ED8D9F80D
:103150000000C005F6D54D4EA068603601280AD0A3
:1031600008B1052813D0306820F0010030603068C5
:1031700020F0040002E0306840F001003060A068F8
:1031800041F2883A98B1FEF7C1F981460AE0306809
:1031900040F004003060EEE7FEF7B8F9A0EB09015B
:1031A000514503D830688007F6D50EE072E0FEF78F
:1031B000ADF9814606E000BFFEF7A8F9A0EB0901D2
:1031C000514567D830688007F6D4606A00287CD003
:1031D000DFF8B8A0D8F800100AF1200A4FF6F87B03
:1031E0000AF10408C1F3C2010329AAF104096DD050
:1031F0000228286820F08070286003D0FEF786F946
:10320000044681E0FEF782F9064604E0FEF77EF907
:10321000801B022875D828688001F7D4E26A40F242
:10322000F331386854F8283F884340EA02101843C5
:103230003860217B4FF4FE0C22894FF0FE47208A34
:103240004902267D521E401EA1F5007189B2C2F3CB
:1032500008021143761E0CEA00400143484607EA83
:1032600006621143CAF80010D9F8001021F00101DC
:10327000C9F80010D8F80030266A23EA0B0343EAA5
:10328000C601C8F80010D9F8001004E01044025834
:103290000048025835E0A26921F00C011143C9F839
:1032A00000100168E26921F0020111430160016828
:1032B00041F480310160016841F40031016001682E
:1032C00041F480210160016801E06CE020E041F000
:1032D00001010160286840F080702860FEF716F94F
:1032E000044604E0FEF712F9001B022809D82868FA
:1032F0008001F7D557E000BFFEF708F9001B022850
:1033000002D90320BDE8F09F28688001F4D44AE088
:1033100039680128DAF8000021D0A26A01F003031D
:1033200093421CD1E26AC1F305118A4217D1216B85
:10333000C0F30802491E8A4211D1616BC0F34622D4
:10334000491E91420BD1A16BC0F30642491E914226
:1033500005D1E16BC0F30660491E814201D0012016
:10336000D0E7A16C4646D8F80000C0F3CC008142FB
:1033700019D0D9F800004D4620F00100C9F800002E
:10338000FEF7C4F84FEA0007FEF7C0F8B842FBD0DA
:10339000A26C306820EA0B0040EAC2003060286866
:1033A00040F0010028600020ACE704284FF0E02046
:1033B000016903D021F004010161704741F004016B
:1033C000FAE7401EB0F1807F10B501D3012010BD97
:1033D0004FF0E02460610F21601702F0C2FC002072
:1033E000A0610721216110BD704770477047000040
:1033F000F0B590F83C20012A41D0224E012480F8FB
:103400003C40022280F83D2002681F4D5368B242C2
:10341000D2F808C001D0AA4203D14F6823F4700348
:103420003B430F6823F070031F4357600268B242AA
:1034300019D0B2F1804F16D0144B9A4213D0144BCE
:103440009A4210D0134B9A420DD0AA420BD0124B85
:103450009A4208D0114B9A4205D0114B9A4202D0A1
:10346000104B9A4204D189682CF080031943916073
:10347000002180F83D4080F83C100846F0BD022055
:10348000F0BD0000000001400004014000040040C5
:1034900000080040000C00400018004000400140BF
:1034A00000E0004000E4004010B5040003D094F8B0
:1034B0003D0010B107E0012010BD002084F83C0061
:1034C000204600F023F8022084F83D002068211DEA
:1034D00000F0FCFD012084F8480084F83E0084F8E8
:1034E0003F0084F8400084F8410084F8420084F8EA
:1034F000430084F8440084F8450084F8460084F8CA
:10350000470084F83D00002010BD000008B50068A9
:103510000B49884212D10B48016841F00201016059
:1035200000680022114600F0020000901D20FEF706
:1035300065F8BDE808401D20FEF752B808BD000040
:1035400000040040E844025890F83D10012901D0E1
:10355000012070471A4A022180F83D100168CB68AB
:1035600043F00103CB60006890421AD0B0F1804F65
:1035700017D01449884214D01349884211D01349F6
:1035800088420ED0124988420BD01249884208D096
:103590001149884205D01149884202D01049884219
:1035A00007D181680F4A1140062906D0B1F5803F46
:1035B00003D0016841F00101016000207047000064
:1035C000000001400004004000080040000C0040E2
:1035D00000040140001800400040014000E00040AD
:1035E00000E400400700010070B5044690F83C007C
:1035F0000025012814D03A4B012684F83C600220B3
:1036000084F83D0022689068184020F47F40906064
:10361000086870282FD010DC10F00F0F03D022E0C4
:103620004FF0020070BD4FEA2012072A1BD2DFE8DC
:1036300002F0535353534B394100B0F1101F4BD09C
:1036400009DCB0F5805F0FD0B0F5005F1ED0B0F59B
:10365000801F08D140E0A0F5801120393CD010290E
:103660003AD0202938D0012584F83D60002084F824
:103670003C00284670BD4A682068D1E9021300F07A
:1036800091FD2068816841F0770109E04A6820686F
:10369000D1E9021300F086FD2068816841F4804181
:1036A0008160E1E7CA684968206800F08FFD206802
:1036B000502106E0CA684968206800F098FD20683B
:1036C000602100F079FDCFE7CA684968206800F002
:1036D0007DFD20684021F4E7226801461046F0E7AE
:1036E00088FFCEFF704770B5044600680025016969
:1036F000C943890715D4C168C943890711D4EA1E93
:10370000026101212177206880698007204602D06C
:10371000FFF7E8FF04E000F0A7F8204600F0A5F866
:10372000257720680169C943490717D4C168C9438F
:10373000490713D402216FF0040202612177206847
:10374000806910F4407F204602D0FFF7CBFF04E0F1
:1037500000F08AF8204600F088F825772068016993
:10376000C943090716D4C168C943090712D4042103
:103770006FF00802026121772068C0698007204647
:1037800002D0FFF7AFFF04E000F06EF8204600F033
:103790006CF8257720680169C943C90617D4C16848
:1037A000C943C90613D408216FF0100202612177C2
:1037B0002068C06910F4407F204602D0FFF792FFD6
:1037C00004E000F051F8204600F04FF8257720681B
:1037D0000169C943C90708D1C168C943C90704D1F0
:1037E000891E0161204600F041F820680169C94343
:1037F000090609D4C168C943090605D46FF08001E0
:1038000001612046FFF7F1FD20680169C943C90540
:1038100009D4C168C943090605D46FF480710161F8
:103820002046FFF7E1FD20680169C943490609D434
:10383000C168C943490605D46FF0400101612046C3
:1038400000F062F820680169C94389060BD4C16899
:10385000C943890607D46FF0200101612046BDE805
:103860007040FFF7C3BD70BD7047704710B500686A
:103870001E49884239D11E491E4802F0EDFA1E4900
:103880001E4802F0E9FA1A491A486C3102F0E4FACB
:1038900019491A486C3102F0DFFA15491548D83138
:1038A00002F0DAFA14491548D83102F0D5FA144971
:1038B000104802F0D1FA1349104802F0CDFA10492D
:1038C0000C486C3102F0C8FA0E490C486C3102F019
:1038D000C3FA094907486C3902F0BEFA0949BDE844
:1038E00010400648D83102F0B7BA10BD00040040BD
:1038F0002C030024A0010024B4050024400200246D
:1039000070040024F80600247047FEE7F0B5002399
:103910000A251C463026372711E000BFB5EB107F83
:1039200002D906EB107C01E007EB107C01F813C014
:1039300001EB430C00015B1C8CF80140DBB29342AD
:10394000ECD3F0BD184800212DE9F041154F0126B8
:103950008160052407600423C160132501740822D7
:1039600041748174C0E90536C0E90754C562C0E9F5
:103970000C418463C0E90936C0E91121C0E90F4355
:10398000C0E91321C0E91531C0E91712C0E91912C5
:10399000FDF7D8FA002803D0BDE8F041FCF739BEA6
:1039A000BDE8F08100A00040A001002419480021DA
:1039B0002DE9F041164F012681600524076004239C
:1039C000C160132501742702417408228174C0E983
:1039D0000536C0E90754C0E90B54C0E90D74C0E9CD
:1039E0000936C0E91121C0E90F43C0E91321C0E93C
:1039F0001531C0E91712C0E91912FDF7A3FA002822
:103A000003D0BDE8F041FCF704BEBDE8F081000042
:103A100000A400404002002430B587B0142168465D
:103A2000FCF716FD1A48016841F080010160016849
:103A300001F080010591016841F001010160016818
:103A400001F001010591016841F008010160016880
:103A500001F008010591016841F002010160006870
:103A60004FF400440B4D002200F002002146059067
:103A70002846FDF745FD002100940120CDE9010114
:103A8000284603916946FDF72DFC07B030BD0000C4
:103A9000E04402580000025810B588B017480024CE
:103AA0001549EF2240F2CF730094019402940394DD
:103AB00004940594069480E81600C0E903348461F8
:103AC000FFF7F2FC08B1FCF7A4FD4FF48050009022
:103AD0000A486946FFF788FD08B1FCF79AFD0748D8
:103AE00004A904940694FFF783FC002801D0FCF796
:103AF00090FD08B010BD000000040040E00200246A
:103B000010490122104810B500F0AAFF08B1FCF7D7
:103B100080FD0E490C4801F0C3F908B1FCF779FDAE
:103B20000B49094800F042FD08B1FCF772FD064858
:103B300001F03CFA08B1FCF76CFDBDE81040FEF75F
:103B40000FBB000080000024A00800244C010024CA
:103B5000E0000024FEE7FEE70148FDF7E3BE0000B9
:103B6000D01F00242DE9F0410446C0680D462027EF
:103B7000236801284FF4004604F2C44203EB4511C8
:103B8000D3F840C0D1F8080B09D0DFF89CE0F44529
:103B90003AD1020433D500BFC1F8086B40E0234B93
:103BA0005FEA007E04D59C453AD90004F4D437E09E
:103BB0005FEA806E02D5C1F8087B31E010F0280F73
:103BC0002ED19C4501D90004E6D4D1F8101B05EB99
:103BD000C50004EB8000C1F31201D0F89C32A3EBC6
:103BE0000101C0F8901200F51F70ADB903691BB157
:103BF000C2681144C1600FE0206801210AE080061C
:103C00000AD5C1F8087B07E035B9D4F88C0218B999
:103C10000021184601F04AFD2046E9B2FDF769FD92
:103C20000020BDE8F08100000A31544F0A30544FA3
:103C30002DE9F84F0E460568814601EBC60100EB01
:103C40008104D4E913203C34904202D90120BDE81C
:103C5000F88FA168101A814200D20846C01C05EBFB
:103C6000461887081BE000BFA268A0EB010A524576
:103C700000D2924699F80C100AF1030000911FFA45
:103C80008AF3E16887082846F2B202F055F8E16845
:103C900001EB0A00E060616901EB0A006061D8F89D
:103CA000180980B2B84205D3D4E90401814201D297
:103CB0000028D9D1D4E90401884208D8D5F83418AD
:103CC000012006F00F0290408143C5F8341800200F
:103CD000BDE7704770B5AEB0B8216846FCF7B8FBD9
:103CE0000023182419464FF4004202208DE81C00DE
:103CF000C82506ABCDE903502026059083E8430094
:103D0000020768461B920991FEF732FA002801D09B
:103D100072B6FEE72EB070BD2DE9F047454D044662
:103D200089464FF0000A2868C04380070AD0414EF8
:103D3000283E306820F080603060FDF7E7FB0746E2
:103D4000B04608E00120BDE8F08700BFFDF7DEFBCC
:103D5000C01B022867D8D8F800000001F6D42068FC
:103D600029684FF4FE0721F47C313E0241EA00301D
:103D70002860207AA389B4F804C040022D4D2D4953
:103D80005B1E227CACF1010C1035091DA0F5007002
:103D900080B2521ECCF3080C07EA034340EA0C0041
:103DA000184306EA0262104328600868626920F03E
:103DB000C000104308600A68A06922F02002024394
:103DC0000A60281D0A6822F010020A6002684FF695
:103DD000F873E4699A4342EAC40202600868B9F1E0
:103DE000000F40F010020A6011D00868B9F1010F0D
:103DF00011D040F400100860D8F80000444640F0AC
:103E00008060C8F80000FDF781FB05460DE00868FA
:103E100040F40020EFE740F48010ECE7FDF776FB7C
:103E2000401B022801D903208DE720680001F5D549
:103E3000504688E7284402582DE9F047454D04468E
:103E400089464FF0000A2868C04380070AD0414ED7
:103E5000283E306820F080503060FDF757FB074661
:103E6000B04608E00120BDE8F08700BFFDF74EFB3B
:103E7000C01B022867D8D8F800008000F6D420883C
:103E800029684FF4FE0721F07C713E0241EA0050A0
:103E90002860207AA389B4F804C040022D4D2D4932
:103EA0005B1E227CACF1010C1835091DA0F50070D9
:103EB00080B2521ECCF3080C07EA034340EA0C0020
:103EC000184306EA0262104328600868626920F419
:103ED0004060104308600A68A06922F4007202433F
:103EE0000A60281D0A6822F480720A6002684FF690
:103EF000F873E4699A4342EAC40202600868B9F1BF
:103F0000000F40F480720A6011D00868B9F1010F07
:103F100011D040F080700860D8F80000444640F0AE
:103F20008050C8F80000FDF7F1FA05460DE008687A
:103F300040F48000EFE740F40000ECE7FDF7E6FA1C
:103F4000401B022801D903208DE720688000F5D5A9
:103F5000504688E72844025870470178407841EA83
:103F600000207047FDF7D8BA30B59DB04C216846A7
:103F7000FCF76EFA202113A8FCF76AFA0220FEF77C
:103F8000C5F81E48016821F4404101600168002421
:103F900001F440411B9101688904FCD5022009907D
:103FA0002122C50328230121CDE9002506910C22F9
:103FB0000A90CDE90B03CDE90D100FA981E815009A
:103FC00068461294FEF75EFF08B172B6FEE7402025
:103FD0001A9008230501CDE9163013ABCDE9180579
:103FE0003F21032283E8160013A81146FEF75EFD69
:103FF000002801D072B6FEE71DB030BD1848025847
:104000002748F0B5274A016841F470010160106843
:1040100000F00F00072804D2106820F00F00C01D28
:10402000106021490020204C10340B681F4D43F0D4
:1040300001030B6020600B682B400B60136803F0DA
:104040000F03072B04D9136823F00F03DB1D136044
:10405000154C174A1834174B261D371D2060124C7B
:10406000154D28343060261D3860371D23603B1DF8
:1040700035601C1D3A60251D2E1D1860331D226001
:104080002860326018600A6843F2D204064B0B4D78
:1040900022F4802260330A6018602C60F0BD0000BA
:1040A00088ED00E000200052004402587FEDF6EA5F
:1040B00080020101000202020000FF0100400052E4
:1040C0000148FFF710BB0000E00200242DE9F04793
:1040D0002A4B4FF0804A2A4D02689842294E2A4FB7
:1040E0002A4C09D0504507D0A84205D0B04203D091
:1040F000B84201D0A04205D1D1F804C022F070022C
:104100004CEA0202DFF888C0DFF888809842DFF8C6
:10411000889015D0504513D0A84211D0B0420FD08E
:10412000B8420DD0A0420BD0604509D0404507D021
:10413000484505D0194DA84202D0194DA84203D1D7
:10414000CD6822F440722A434D6922F080022A434E
:10415000026098428A68C2620A68826207D0A042FE
:1041600005D0604503D0404501D0484501D10969DB
:10417000016301214161BDE8F087000000000140BA
:104180000004004000080040000C00400004014012
:1041900000400140004401400048014000E0004070
:1041A00000E4004042EA032283680A4323F47F418B
:1041B0000A43826070470000034B82681A400A433A
:1041C00042F00701816070478FFFCFFF10B5036A8F
:1041D000046A23F00A0324F00104046284690B4397
:1041E00024F0F00141EA02118161036210BD10B5B3
:1041F000036A23F0100303628369046A23F47043A3
:1042000024F0A00443EA0232826144EA011101620F
:1042100010BD2DE9F0410C46D0F8D412D0F8C832C8
:1042200000EB8101D1F8C01229B304F00F0200277E
:1042300002EB820500EB8506B5694DB102EBC202C7
:1042400003EB8202526CB5FBF2F302FB1352A2B1F4
:10425000C1F81472D0F8D42200EB8200D0F8C40266
:1042600003692BB1D1F8080201F504712246984781
:104270000020BDE8F0810320FBE7002321461A4619
:10428000B76100F0EFFDF3E770B50546D0F8D40252
:1042900005EB8000D0F8C04294B1284600F0BBFC8A
:1042A000C4F80C02D5F8D40205EB8000D0F8C41293
:1042B000D4F80402CA6804F503719047002070BD69
:1042C000032070BD70B5224D0446297800F0E4FB50
:1042D0002878002600F00F0000EB800004EB80003F
:1042E00086842046697800F0D7FB687800F00F00DC
:1042F00000EB800004EB8000A0F864612046A97800
:1043000000F0CAFBA87800F00F0000EB800004EB7F
:1043100080008684C684D4F8D40204EB8000D0F8F0
:10432000C01299B1D0F8C40240688047D4F8D402D2
:1043300004EB8000D0F8C00200F0BDFFD4F8D40236
:1043400004EB8000C0F8C062C4F8BC62002070BDFD
:10435000F800002410B5D0F8D41200EB8100D0F89A
:10436000C04284B1D0F8C41259B194F80002FF28B9
:1043700007D08B68214694F801229847FF2084F8E3
:104380000002002010BD032010BD00000A210180A2
:1043900000487047FC00002470B5822106460D4895
:1043A00000F092FA012105460A4800F08DFA8121B9
:1043B0000446084800F088FA0DB11021A9714FF0A9
:1043C000400104B1A18000B18180432030800148C8
:1043D00070BD00000801002470B5822106460D481A
:1043E00000F072FA012105460A4800F06DFA8121B9
:1043F0000446084800F068FA0DB11021A9714FF485
:10440000007104B1A18000B1818043203080014857
:1044100070BD00000801002470B5822106460D48D9
:1044200000F052FA012105460A4800F04DFA8121B8
:104430000446084800F048FA0DB11021A9714FF068
:10444000400104B1A18000B1818043203080014847
:1044500070BD0000080100242DE9F0474FF40775F6
:104460000446284600F028FF06004FF0000965D0FA
:104470002946FBF7EDFFD4F8D40201273C4D4FF459
:10448000007A4FF0100804EB8000C0F8C062C4F856
:10449000BC62207CF0B3297840230222204600F041
:1044A0002BFC2878402300F00F0000EB800004EB89
:1044B0008000878402226978204600F01DFC69781C
:1044C00008230322204601F00F0101EB810104EBD8
:1044D0008101A1F86471A97801F00F0101EB81015C
:1044E00004EB8101A1F82680A97800F005FCA978E9
:1044F000C84601F00F0101EB810104EB81018F84BB
:10450000C6F80492D4F8D40204EB8000D0F8C402B8
:10451000006800E01AE006F501768047C6F81080D2
:10452000C6F8148032687AB1207CF8B140236978EB
:10453000204600F0EDFB0020BDE8F087D4F8D4124F
:1045400004EB8101C1F8C0920220F5E7297802222C
:104550005346204600F0D0FB2878534600F00F0069
:1045600000EB800004EB80008784A3E75346DEE77E
:10457000F800002410B5D0F8D41200EB8101D1F876
:10458000C01259B1027C084C002AD1F8042207D08D
:104590004023617800F0BCFB002010BD032010BD5B
:1045A0004FF40073F5E70000F800002439B1D0F8AB
:1045B000D42200EB8200C0F8C41200207047032010
:1045C0007047D0F8D42200EB8200D0F8C00218B1B6
:1045D000C0F804120020704703207047D0F8D4328E
:1045E00000EB8300D0F8C00228B1C0F81022C0F858
:1045F000081200207047032070472DE9FC41064651
:10460000D0F8D4020C46002106EB80000D46D0F80D
:10461000C0728DF80010ADF8041037B1217811F098
:1046200060022CD0202A48D102E00320BDE8FC81A2
:10463000E288E2B109060BD5D0F8C4023946836896
:1046400060789847E288072A00D9072239462CE08B
:10465000607887F80002E088402800D3402039467F
:10466000C2B2304687F8012200F07FF82AE0D0F885
:10467000C4020022214683686078984722E060786F
:1046800030B101281ED00A2809D00B2815D110E01E
:1046900096F89C02032810D1022201A905E096F8A1
:1046A0009C02032809D101226946304600F077F8C0
:1046B00008E096F89C02032804D02146304600F01A
:1046C00049F803252846B1E710B5D0F8D41200EB1D
:1046D00081020121D2F8C0221AB1D2F8143213B1EA
:1046E00016E0032010BD0B490123C2F81432D2F8A2
:1046F0001032097801F00F0404EB840400EB840409
:10470000A361D2F81032D2F8082200F0ABFB0021EE
:10471000084610BDF800002410B5D0F8B8220024D7
:104720005268904700B10324204610BD0020704716
:104730000020704713460A46002110B500F0E8FA41
:10474000002010BD13460A46002110B500F08AFB78
:10475000002010BD10B58021044600F064FB204607
:10476000BDE81040002100F05EBB10B5C0F8582134
:104770000323C0F89432C0F85C2113460A46002196
:1047800000F0C6FA002010BD10B50521C0F8941243
:1047900000231A46194600F0BBFA002010BD10B5E0
:1047A00082610223C0F89432C26113460A46002196
:1047B00000F058FB002010BD10B50421C0F8941281
:1047C00000231A46194600F04DFB002010BDF8B535
:1047D00004460D460020ADF800004888010A06296D
:1047E00047D006DC01290FD0022912D0032962D15B
:1047F0001DE0072946D00F295DD1D4F8B402C26963
:1048000020E0694690473BE0D4F8B412207C0A6867
:10481000F7E7207C02260028D4F8B80205D0C16A48
:10482000684688470146467036E0816AF8E7C0B2BC
:10483000062840D2DFE800F003090D111519D4F85D
:10484000B4024268B2B3207CDBE7D4F8B4028268D9
:10485000F8E7D4F8B402C268F4E7D4F8B402026905
:10486000F0E7D4F8B4024269ECE7D4F8B402826904
:10487000E8E7207CF0B9D4F8B802416B6846884775
:10488000014609E0207CA8B9D4F8B802016B68465B
:104890008847014607204870EA888AB1BDF80000C1
:1048A00040B1824200D902462046ADF80020FFF711
:1048B00076FFF8BDFFE729462046FFF74BFFF8E7F4
:1048C0002046FFF779FFF4E778B542880D46017876
:1048D000002604468A4212D9ADF800100AE0694663
:1048E00000F00FF84178052904D181780646A942E5
:1048F00005D000266188BDF800209142EFD83046EF
:1049000078BD0A8803781A440A8001780844704701
:1049100070B500284FF000051ED004462E4602E078
:10492000761C641CF6B22378002BF9D1022404EB28
:104930004604148012786B1C03264A550024AA1CD6
:10494000CE5406E0551C8B54EAB2531C401C8C54C8
:10495000DAB20378002BF5D170BD01004FF00000F2
:1049600004D0012901D0022901D003207047012081
:104970007047000004A00A46024910B5FFF7C8FFBF
:10498000004810BD7C0B002443444320436F6E66F7
:10499000696700001220088000487047A4000024C6
:1049A00004A00A46024910B5FFF7B2FF004810BD47
:1049B0007C0B002443444320496E74657266616336
:1049C000650000000420088000487047A000002413
:1049D00004A00A46024910B5FFF79AFF004810BD2F
:1049E0007C0B002453544D6963726F656C6563746E
:1049F000726F6E696373000004A00A46024910B525
:104A0000FFF786FF004810BD7C0B002453544D3344
:104A100032205669727475616C20436F6D506F72ED
:104A20007400000010B51A2008800B480A490830AD
:104A3000021F096800681468081809D0074908228D
:104A4000FEF764FF0549042220461031FEF75EFFA1
:104A50000248801E10BD000000E8F11FC6000024BF
:104A600078B10023C0F8B832C0F8C432C0F8D032F0
:104A700009B1C0F8B4120121027080F89C1200F054
:104A8000CFB80320704710B5D0F8C802FCF774FE09
:104A9000BDE81040FFF761BF10B5D0F8C802FCF7C1
:104AA00045FEBDE81040FFF758BF2DE9F04117461D
:104AB00004464FF0000521B194F89C02032842D02F
:104AC0004CE0D4F8941204F11400022935D1D0E955
:104AD00002639E4206D9F21A394682602046FFF7E9
:104AE00031FE0FE0B34214D14068984211D3D4F89C
:104AF000981288420DD2002220461146FFF722FE6E
:104B0000C4F8985200231A461946204600F000F9CE
:104B100013E094F89C02032808D1D4F8B802C168C5
:104B200021B1C4F8D452C16820468847802120466C
:104B300000F079F92046FFF727FE94F8A00268B14B
:104B400084F8A0520AE0D4F8B802426932B1C4F83D
:104B5000D452426920469047002800D10020BDE889
:104B6000F08170B5134604464FF0000221B194F86D
:104B70009C02032830D03AE0D4F8941204F5AA70CD
:104B8000032934D1D0E902518D420AD96A1A8260D0
:104B90000846824200D3024619462046FFF7CAFD66
:104BA00025E094F8AA0210F01F0003D0012802D0DB
:104BB000022800D0002294F89C02032808D1D4F8DF
:104BC000B802016921B1C4F8D4220169204688479E
:104BD0002046FFF7F1FD0AE0D4F8B802836933B14B
:104BE000C4F8D422826920469047002800D10020D2
:104BF00070BD0020704710B5D0F8B812012280F8BF
:104C00009C22002429B103794A68D9B2904700B1A7
:104C10000324204610BDD0F8C802FCF7DBBD00001D
:104C200070B50178012929D1154902230022154CBC
:104C30000925C1F80805C0F8C8120846C1E90323D0
:104C4000C1E906320A624A62CA620A634A63C1E97A
:104C50000045FDF73DF908B1FBF7DBFC08484FF4D0
:104C60000071FCF712FD064880220021FCF711FDBF
:104C7000034801214FF4BA72FCF70BFD002070BD10
:104C8000D01F002400000440D0F8C82201F07F00AB
:104C90000B0600EBC00002EB800002D590F83E004E
:104CA000704790F87E02704710B5D0F8D42200EB20
:104CB0008202D2F8B82222B190F89C32032B02D0A3
:104CC00004E0032010BD126A02B19047002010BD1D
:104CD00010B5D0F8D42200EB8202D2F8B82222B16B
:104CE00090F89C32032B02D004E0032010BD526ADE
:104CF00002B19047002010BD10B51C46D0F8C80284
:104D000013462246FCF76FFDBDE81040FFF725BEB5
:104D100010B5D0F8C802FCF796FDBDE81040FFF7CB
:104D20001CBE2DE9F041044601250020D4F8B8123C
:104D3000064684F89C52C4F894026060C4F8A40249
:104D400084F8A00231B14A6822B100212046904780
:104D500000B103262046002240231146FFF7CCFF76
:104D60004027A4F8645100223B4680212046C4F825
:104D70006071FFF7C1FFA58430462762BDE8F0816E
:104D800090F89C12042903D190F89D1280F89C128F
:104D90000020704710B590F89C12032905D1D0F877
:104DA000B81211B1C96901B18847002010BD017462
:104DB0000020704710B5D0F8C802FDF753F9BDE8E0
:104DC0001040FFF7CABD70B5044600F2AA200546A0
:104DD00000F051F894F8AA020123B4F8B01210F0D0
:104DE0001F02C4F89432C4F898120AD0012A0ED0D7
:104DF000022A12D000F080012046BDE8704000F089
:104E000012B829462046BDE8704000F0D1B82946C6
:104E10002046BDE8704000F014BA29462046BDE89F
:104E2000704000F05CB910B5D0F8C802FCF725FD61
:104E3000BDE81040FFF791BD10B5D0F8C802FDF7EE
:104E40002CF9BDE81040FFF788BD90F89C120429AA
:104E500003D090F89C1280F89D12042180F89C12D7
:104E60000020704710B5D0F8C802FCF740FDBDE83F
:104E70001040FFF772BD70B5054608788C1C28708D
:104E8000487868702046FFF768F8A41C68802046C0
:104E9000FFF763F8A880A01CFFF75FF8E88070BDFB
:104EA00038B504460020ADF80000A1B1C4F8B8122E
:104EB000D4F8D40204EB8000D0F8B802C16A19B16A
:104EC00068468847C4F8D002D4F8D802401CC4F819
:104ED000D802002038BD032038BDD0F8B8320246D1
:104EE0000020002B02D01B681046184770470000B6
:104EF0002DE9F0412C4E0446887800258846C1B241
:104F00000129317006D941462046FFF723FC0320D2
:104F1000BDE8F08194F89C02022702280CD00328F7
:104F20001DD041462046FFF715FC31782046FFF79B
:104F3000F3FB03252846EBE789B320466160FFF7C2
:104F4000CCFF050004D041462046FFF703FC1DE0DE
:104F50002046FFF731FC032084F89C02EAE7C1B148
:104F6000606888421BD0C1B22046FFF7D5FB31787C
:104F700020466160FFF7B1FF050010D04146204692
:104F8000FFF7E8FB21792046FFF7C6FB84F89C7207
:104F9000D0E7616084F89C722046FFF7BDFB204695
:104FA000FFF70AFCC6E70000F4000024FFF744BF47
:104FB0002DE9F0410A784FF0000512F060020CD0A4
:104FC000202A01D0402A7DD1D0F8D42200EB8202E1
:104FD000D2F8B8229268904731E04B78002201263F
:104FE0000A2B6FD2DFE803F041666E586E08056E3B
:104FF0002D29FFF7ECFB67E004468888D8B9C888FC
:10500000C8B94888802816D294F89C2200F07F07FF
:10501000032A10D03946204684F89E72FFF7CAFE54
:105020002046FFF7C9FB1FB1022084F89C024BE029
:1050300084F89C6248E0204644E0FFF759FF0546AB
:1050400042E0CB88012B3DD190F89C32012B04D05B
:10505000022B02D0032B35D104E000F1080182605D
:10506000012216E00122011D13E090F89C22012A82
:1050700003D0022A01D0032A24D1CA88022A21D1CE
:10508000D0F8A412C66009B10321C160022200F168
:105090000C01FFF784FB17E04A88012A02D0022A9C
:1050A00003D00FE0C0F8A46216E08988090A80F8EE
:1050B000A01211E090F89C32012B08D0022B06D0F0
:1050C000032B04D0FFF746FB2846BDE8F081498852
:1050D0000129F9D1C0F8A422FFF76EFBF4E72DE90E
:1050E000F0410A780E460979054612F060004FF04B
:1050F0000008CCB20BD0202801D040286AD121462C
:105100002846FFF713FBFF2800D0D8B396E070784D
:10511000C8B3012824D003285CD195F89C0202284A
:1051200002D0032856D10CE0002C53D0802C51D053
:1051300021462846FFF777FE80212846FFF773FEB9
:105140007CE0708840B93CB1802C05D0F08818B95B
:1051500021462846FFF767FE2846FFF72DFB6DE046
:1051600095F89C020228DFD0032863D1708880BBA9
:10517000600603D021462846FFF785FC2846FFF746
:105180001BFBBCE700E00AE0C5F8D402D5F8B80282
:105190008268F2B131462846904780464EE095F845
:1051A0009C020027022802D0032843D113E00CB14F
:1051B000802C3FD1200604F07F0000EB800005EB3F
:1051C000800101D5143101E001F5AA7102220F60BE
:1051D0002CE033E02EE0200604F00F0000EB80000E
:1051E00005EB800009D5808C20B304F07F0000EB34
:1051F000800005EB800614360AE0B0F86401C8B1FF
:1052000004F07F0000EB800005EB800606F5AA762F
:105210004CB1802C07D021462846FFF735FD10B150
:105220000120306000E03760022231462846FFF757
:10523000B6FA03E031462846FFF78CFA4046BDE84F
:10524000F08170B5054608780E464FF0000410F066
:10525000600003D0202801D0402827D195F89C0277
:10526000012803D0022801D003281FD1B088C1B281
:1052700001291AD8C1B22846FFF75AFAFF280CD0E4
:1052800058B9D5F8B8128A683AB1C5F8D402284698
:105290008A6831469047044600E00324F0882043A2
:1052A00007D12846FFF788FA03E031462846FFF782
:1052B00051FA204670BD704700487047B01D002469
:1052C00070B54D7801230A78012D1C4C02F00F05B2
:1052D00003FA05F3D0F81C5817D000EB421245EA48
:1052E0000343C0F81C38D2F8000B00040BD40B8920
:1052F0000979D2F8000BC3F30A03184344EA814149
:105300000843C2F8000B002070BD9EB23543C0F8C0
:105310001C5800EB4213D3F800090004F3D40D89A4
:105320000979D3F80009C5F30A058904284341EA3D
:10533000825108432043C3F80009E4E700800010CD
:10534000D0F800196FF30A01C0F80019D0F804185A
:1053500041F48071C0F804180020704770B504460D
:105360001D4606990A9E0D9801291DD0E06840F05F
:105370004000E060204600F035F8A16B5EB321F4F8
:105380008031A163012D0ED1E16D144A89B2E1652E
:10539000E16D1143E165A16841F00601A160A168DA
:1053A00041F02001A16070BDA26B01280C4922F4DC
:1053B0008030A063E06800EA0100E060E06820F46B
:1053C0004010E06003D1E06840F48010E0602046C7
:1053D00000F008F8D6E741F48031D2E70000EE0390
:1053E000BFFFBDFF08B50E4900220092009B5B1C69
:1053F00000938B420CD80369002BF7DA0092026904
:1054000042F001020261009A521C00928A4201D9C4
:10541000032008BD0269D207F5D1002008BD0000B5
:10542000400D030070B50A7801234C78012C00EB85
:1054300042122CD0D2F8004B002C0BDAD2F8004BE1
:1054400044F00064C2F8004BD2F8004B44F08044B2
:10545000C2F8004B0C78D0F83C5804F00F0403FA63
:1054600004F425EA0444C0F83C480978D0F81C4804
:1054700001F00F018B401C4924EA0343C0F81C389B
:10548000D2F8000B0840C2F8000B002070BDD2F823
:105490000049002C0BDAD2F8004944F00064C2F84D
:1054A0000049D2F8004944F08044C2F800490D7820
:1054B000D0F83C4805F00F050C4E03FA05F5ADB2E7
:1054C000AC43C0F83C48D0F81C48097801F00F0103
:1054D0008B4099B28C43C0F81C48D2F80009304088
:1054E000C2F80009D1E700000078F3EF007833EC50
:1054F000D0F8001E21F00301C0F8001ED0F80418F7
:1055000021F00201C0F8041800207047D0F8001EF6
:1055100021F00301C0F8001ED0F8041841F0020188
:10552000C0F80418002070472DE9F04F9A460E4647
:1055300000210446DDE90B3B109F0D46099A084601
:1055400004EB800CCCF80411401C0F28F8D3204643
:10555000A7B1806B40F4001CC4F838C088460846E8
:10556000C4F8000E2046D4F80018012BC4F8001827
:105570001AD0D0F8001841F003011AE0D0F804085E
:1055800040F0020CC4F804C8A06B20F4001CC4F85E
:1055900038C0206840F0400CC4F800C0206840F0DB
:1055A000800CC4F800C0D9E7D0F800180AB141F067
:1055B0000101C0F80018102100F08CFA00B101259B
:1055C000204600F069FA00B1012540464FF000681E
:1055D0004FF67F334FF09049C4F81008C4F8140810
:1055E000C4F81C08002114E004EB4112D2F800C9F1
:1055F000BCF1000F06DA11B1C2F8009904E0C4F85A
:10560000008901E0C2F80009C2F81009C2F808399F
:10561000491C8E42E8D8002115E000BF04EB41127E
:10562000D2F800CBBCF1000F06DA11B1C2F8009B32
:1056300004E0C4F8008B01E0C2F8000BC2F8100BC4
:10564000C2F8083B491C8E42E8D8D4F81038BAF1A9
:10565000000F6FF0804223F48073C4F81038A0610B
:10566000626103D1A06940F01000A061A069BBF1A4
:10567000000F094A40EA0200A06103D0A06940F08F
:105680000800A061012F03D1A06904490843A0616B
:105690002846BDE8F08F000000383C800400004040
:1056A000816821F0010181600020704710B5144C21
:1056B000036CA34203D9D0F8003B002B1EDB002370
:1056C000C0F8103B0129D0F8101B41F40021C0F8AC
:1056D000101BD0F8101B41F01801C0F8101BD0F8B7
:1056E000101B41F0C041C0F8101B07D1C0F8142BAB
:1056F000D0F8001B41F08021C0F8001B002010BD35
:105700000A30544F0B784A78012A00EB43100BD033
:10571000D0F8002B22F40012C0F8002B09790329DD
:1057200014D0022912D017E0D0F8002922F4001278
:10573000C0F800290979032901D002290CD1D0F839
:10574000001941F08051C0F8001905E0D0F8001BA5
:1057500041F08051C0F8001B002070470A784B7858
:10576000D1B2012B00EB421012D0D0F8002B002A4E
:1057700006DB29B1D0F8001B21F08041C0F8001BE6
:10578000D0F8001B41F40011C0F8001B0020704746
:10579000D0F80029002A06DB29B1D0F8001921F041
:1057A0008041C0F80019D0F8001941F40011C0F888
:1057B0000019EBE7F8B50B786FF060464F788A4D2B
:1057C000DCB2012F00EB43132BD0D3F8107B002C5D
:1057D00007EAC544C3F8104BD3F8104B04EA05049C
:1057E000C3F8104B7ED00D69002D7CD08C68254409
:1057F0006D1EB5FBF4F5ADB26C430C6206EAC5450F
:10580000D3F8104B2C43C3F8104BD3F8104B0D6A50
:10581000C5F3120554EA0504C3F8104B012A6ED0F3
:10582000C9E00F6937B3D3F810796FF31207C3F8E3
:105830001079D3F8107907EA0507C3F810794CB34B
:105840000F698D68D3F810C92F447F1EB7FBF5F59B
:1058500006EAC54545EA0C05C3F810590E69D3F8A8
:105860001059C6F312063543C3F810590D79012DAE
:105870001CD027E0D3F810692E40C3F81069D3F884
:10588000105945F40025C3F81059D3F810596FF397
:10589000120515E00E698D68AE4200D90D61D0F891
:1058A000106946F40026C0F81069D7E7D3F81059FC
:1058B00025F0C045C3F81059D3F8105945F00055EC
:1058C000C3F81059012A1BD000EB4413D3F8004948
:1058D00044F00444C3F800490C79012C31D00A6922
:1058E00072B301E042E055E00B78D0F834180122A1
:1058F00003F00F039A401143C0F8341871E056E0EA
:10590000CA691AB100EB4413C3F8142909790129B3
:105910000ED1D0F80818C90500EB4411D1F80029C0
:1059200002D442F0005201E042F08052C1F8002956
:1059300000EB4410D0F8001941F00441C0F8001900
:105940004FE0D0F80848E405D3F8004902D444F009
:10595000005401E044F08054C3F8004900920B8ADF
:105960000A78C9689BB200F0E7F93AE00C690CB11B
:105970008C680C618C680C62C4F31205D0F8104B73
:105980002C43C0F8104BD0F8104B44F40024C0F85E
:10599000104B43E78D68D3F8104BC5F312052C4329
:1059A000C3F8104BD3F8104B44F4002434E7CA6812
:1059B0000AB1C3F8142B097901290CD1D0F80808D1
:1059C000C005D3F8000B02D440F0005001E040F0D5
:1059D0008050C3F8000BD3F8000B40F00440C3F82C
:1059E000000B0020F8BD0000FFFF07E038B50022E3
:1059F00042F21074002300920A784D78012D00EBDA
:105A0000421219D0D2F8005B002D3CDAD2F8005BCC
:105A100045F00065C2F8005B0A7800EB4212D2F84C
:105A2000005B45F08045C2F8005B009A521C009272
:105A3000A24221D9012326E0D2F80059002D22DA12
:105A4000D2F8005945F00065C2F800590A7800EB19
:105A50004212D2F8005945F08045C2F80059009A28
:105A6000521C0092A242E5D80A7800EB4212D2F80A
:105A70000029002AF3DB06E00A7800EB4212D2F894
:105A8000002B002AD1DB184638BD816841F00101A6
:105A9000816000207047000008B50D490022009287
:105AA000009B5B1C00938B420AD80369002BF7DA3A
:105AB000009210230361009A521C00928A4201D97D
:105AC000032008BD0269D206F5D4002008BD0000FD
:105AD000400D030018B50E4A00230093009C641C7F
